:1000000052C06CC06BC06AC069C068C067C066C0BF
:1000100065C064C063C062C061C060C05FC05EC0D4
:100020005DC05CC05BC0A2C7CEC7DAC77ECB7DCB4C
:100030007CCB7BCB7ACB79CB78CB77CB76CB75CBA4
:1000400074CB73CB72CB71CB70CB6FCB6ECB6DCBD4
:100050006CCB6BCB6ACB69CB68CBC5C7DBC7E1C7C1
:10006000EEC703C81CC83EC856C860C86DC893C850
:1000700092C864C963C962C961C970C79CC918CAFA
:1000800028CA4ACA54CAA5CAA4CAA3CAA2CAA1CA2B
:100090004CCB4BCB4ACB49CB48CB47CB46CB45CBC4
:1000A00056CA8ECA96CA11241FBECFE5D4E0DEBF61
:1000B000CDBF10E0A0E6B0E0E0EEFFE102C00590A9
:1000C0000D92A036B107D9F713E0A0E6B0E001C069
:1000D0001D92A53EB107E1F765D281CF91CF20E017
:1000E00040E050E030E0FC0109C08081280F231778
:1000F00008F42F5F4F5F5F4F3196322F4617570737
:10010000A1F7822F992708955D9BFECF10BC89B976
:1001100080E28BB988E18AB986E880BD01C08CB1E4
:100120005F99FDCF08955D9BFECF8CB908955F9BCD
:10013000FECF8CB199270895FC0107C080815D9B9B
:10014000FECF31968CB96150704061157105B1F7E1
:1001500008951F93CF93DF93EC01DC01FB0180B383
:10016000992780719070242F332782179307F9F411
:1001700020B33327247E30708091DC039927281721
:10018000390719F082E090E014C05F9BE8CF1CB102
:10019000309751F4CE01A3DF181719F080E890E0F2
:1001A00008C080E090E005C01D933197D8CF81E072
:1001B00090E0DF91CF911F910895282F43B3407FA6
:1001C000882371F084E090E0821B910921E030E007
:1001D00002C0220F331F8A95E2F78FE08227482B57
:1001E00045BB08959FE0899FC0011124805A9F4F0D
:1001F0000895E6ECF2E011920197E9F7089580E0A6
:1002000091E0F7DF0895282FE6ECF2E0E60FF11D0C
:100210006AE09BDE80638083822F97DE9063918308
:1002200008951F9340E195DF182F65DE112339F003
:100230005D9BFECF8EE48CB98FEF90E006C05D9B96
:10024000FECF81E48CB980E090E01F910895CF93B8
:10025000DF93EC018091D3039091D403C817D907A1
:10026000E0F48091CD039091CE039093D2038093DC
:10027000D1031092D4031092D3030FC0C901CDDB78
:100280009093D2038093D1038091D3039091D403B0
:1002900001969093D4038093D3038091D3039091DC
:1002A000D4032091D1033091D2038C179D0731F7ED
:1002B000C901DF91CF9108951F93839B03C08FEFF6
:1002C00090E01BC0AC98882399F010E16091C202C5
:1002D0007091C3028091C4029091C50235DB8823DE
:1002E00019F0115099F7FFCF1092C603AC9A03C0D2
:1002F00081E08093C60380E090E01F910895809193
:10030000C603882319F081E0D7DFFBCF0895DF9281
:10031000EF92FF920F931F937B018C018091C20299
:100320009091C302A091C402B091C502E816F906EB
:100330000A071B0791F0E3DFDD24C801B70169DA82
:10034000882319F0DA94C9F7FFCFE092C202F09245
:10035000C3020093C4021093C5021F910F91FF9036
:10036000EF90DF9008952F923F924F925F926F929D
:100370007F928F929F92AF92BF92CF92DF92EF9235
:10038000FF920F931F93CF93DF93CDB7DEB72797DD
:100390000FB6F894DEBF0FBECDBF8D833A014B017F
:1003A0003F832E836091C1002091BF003091C00037
:1003B0002090D7033090D8034090D9035090DA03AF
:1003C000621473048404950408F0B8C05901CC2465
:1003D000DD24772788279927A601950197DD7B01E2
:1003E0008C01261837084808590829823A824B821E
:1003F0005C82C401B301A8019701C7DD19012A017C
:10040000CA01B901A801970181DD84017301E61ACF
:10041000F70A080B190BC801B701A6019501B5DD54
:1004200039014A01CA01B901A60195016FDDE61A39
:10043000F70A080B190BC1010ADF8091D1039091D3
:10044000D203BCDA660D771D881D991D60DFCC24B0
:10045000DD2486ECA82E82E0B82E63C08091BF0018
:100460009091C000AA27BB27E816F9060A071B07C8
:1004700070F18D81813029F480E01EDF882309F03E
:100480005DC00894611C711C811C911C8091C1008D
:100490009927AA27BB27681679068A069B0650F07B
:1004A0000894211C311C411C511CC101D0DE662462
:1004B000772443018091D1039091D2037FDA660DB6
:1004C000771D881D991D23DFEE24FF248701898174
:1004D0009A81AB81BC810097A105B10541F1D7019B
:1004E000AE53BF4F9D81913019F4F501808102C058
:1004F0008C91D5018C9389819A81AB81BC810197C4
:10050000A109B10989839A83AB83BC830894C11C78
:10051000D11C0894E11CF11C011D111D0894A11CA3
:10052000B11CAE81BF81CA16DB0609F097CFBD8131
:10053000B13039F480E0C0DE882319F080E090E02B
:1005400001C0C60127960FB6F894DEBF0FBECDBF1F
:10055000DF91CF911F910F91FF90EF90DF90CF909F
:10056000BF90AF909F908F907F906F905F904F90D3
:100570003F902F900895CF93DF93EC01BADC5D9B01
:10058000FECF83E48CB9B3DCBE0186EC92E0D4DD0F
:10059000BE0186EC92E0A3DD5D9BFECF8CB9DF91BE
:1005A000CF910895CF93DF93CDB7DEB72D970FB6D8
:1005B000F894DEBF0FBECDBF84B38F6384BBB89801
:1005C000B99881B3837081BBC09AC19A82B38C6F92
:1005D00082BB1092DC031F8219861092CC03A8EE16
:1005E000B0E0F5DC802D888783B3807C8F6385BB8A
:1005F0008EE28ADDAD988299FECFDCD938D9882386
:10060000E1F7709A69986898EEE6F0E010823F96FC
:1006100020E0E93BF207D1F71092DB0300E01E82F5
:100620000023A1F0053090F4A7ECB3E08FE0089F21
:1006300090011124205A3F4FFD018681F9018193D9
:100640009F011196F3E0A63DBF07B1F79FDB88231A
:1006500019F000E010E062C0AD9A8299BACFFDCFE8
:10066000E6ECF2E02CED30E0D901B1DC802D908198
:10067000981709F051C031962F5F3F4F82E0E13D5E
:10068000F80791F78091CD039091CE039093D20318
:100690008093D1031092D4031092D30320E130E071
:1006A00040E050E060E070E080E05DDE81E080935B
:1006B000DB038091CA029091CB02892B2091D70352
:1006C0003091D8034091D9035091DA03813079F405
:1006D00081E28093DB03CA01B90160517040804020
:1006E000904020E031E040E050E011E20BC0CA0150
:1006F000B901605170408040904020E830E040E017
:1007000050E011E042DC215D324040405040B0F00A
:1007100010681093DB0312C00F5F1F4F60E0C80129
:10072000BED9882309F09CCF1092DB038E818823E9
:1007300029F496B3937084E0891B8E838E813DDD0E
:1007400000E001C00FE0AD9A2FC010B3147E80917D
:10075000DC031817F9F082993CCF103A31F0103CC5
:1007600009F45DCF103679F407C08E81823010F025
:10077000815008C084E006C08E81843010F48F5F01
:1007800001C081E08E838E8118DD1093DC0384EF3D
:1007900091E0B3DBA1EACA16A0EFDA06A9E1EA0606
:1007A000A0E0FA0628F0ABDDCC24DD24760105C0FC
:1007B0000894C11CD11CE11CF11C8499C6CF40E0F7
:1007C00064E070E0CE010196C4DC182F92DB849BBC
:1007D000FECF8BDB1123A1F011FDB5CF88858832C8
:1007E00031F090E08F81882309F491E09F838F811D
:1007F000882311F48EE202C088858A5F85DCA3CF4E
:100800008981482F55278153843008F072C326B35D
:10081000237084E390E0821B91092E8148175907C9
:1008200011F4722E0FC0822F9927C09648175907CE
:1008300031F486B3837024E0722E781A03C0798075
:10084000BFE07B220715F1F0053070F48FE0089FC0
:10085000F0011124E05AFF4FADECB3E08D9181938C
:1008600023E0AC3DB207D1F78FE0789EF001112470
:10087000E05AFF4FADECB3E081918D9383E0AC3D46
:10088000B807D1F78091DB0380FF95C09A8193353B
:1008900009F452C78B7F8093DB03903509F4AAC01B
:1008A000913530F4913241F0923209F090C085C018
:1008B000973509F08CC09EC084FD05C020E138E664
:1008C00041E050E004C020E038E641E050E0809193
:1008D000CC03833009F475C0882379F48091D70361
:1008E0009091D803A091D903B091DA0382179307AE
:1008F000A407B50709F065C006C0823021F4812C39
:1009000091E0992E03C080E8882E912C1092CC03A0
:100910008091DB03887409F054C05D9BFECF81E4B5
:100920008CB96DDC8091DB0384FD08C000E1A02E52
:10093000B12CC12CD12C1DC031E029C0AA24BB246C
:10094000650117C079018A01215031404040504073
:1009500028F0E12C11E0F12E012D112D9701B601A7
:10096000A50181E000DD892B39F3AE0CBF1CC01E50
:10097000D11E2091D7033091D8034091D9035091D3
:10098000DA032A193B094C095D09E1F630E0C4019C
:10099000E6ECF2E02FEF21930197E9F7332349F0DA
:1009A0001092C6021092C7028091DB03846080938C
:1009B000DB03C401E0DD072DC6CE8878803809F45A
:1009C000A2CF8091DB0384608093DB030EC0AD98DF
:1009D000892F8255823070F09E3461F09F3451F03F
:1009E0009F3319F48885883229F45D9BFECF8EE40D
:1009F0008CB9E1CF5D9BFECF81E48CB9903509F4D1
:100A000006C1913540F49E34A9F09F3408F09EC091
:100A10009F3389F609C0933509F436C2973509F436
:100A2000F6C0923541F6F3C088858093C60281E016
:100A300090E0C0CF8091DB03B0E46B2E6822E090A1
:100A4000D703F090D8030091D9031091DA0385FF02
:100A500003C020E031E002C020E830E049EE50E081
:100A6000A0E8AA2EAFEFBA2EAFEFCA2EAFEFDA2E64
:100A7000AE20BF20C022D122832E9924FA0166EC39
:100A800072E0DF01A4DA802DDB018D93BD01319688
:100A9000B2E0623D7B07A9F7445F5F4F662099F49F
:100AA0008091CE029091CF02A091D002B091D1025C
:100AB0008A159B05AC05BD0531F48091CC029927C0
:100AC00088159905A1F18091C6028130B9F6832F6E
:100AD00099278093CC022093CD02662051F08DE2BD
:100AE00094EBA0E0B0E0E80EF91E0A1F1B1F2DE7F3
:100AF00030E08091DB0385FF08C080E891E0A0E052
:100B0000B0E0E80EF91E0A1F1B1F44275527C80135
:100B1000B7013BDABB27A52F942F832F8093C80200
:100B20002093C9029A01442755272093CA0281E0E5
:100B30008093CE0283E58093CF0284E48093D00239
:100B400082E78093D1028CE090E034CF6CE070E0DB
:100B500086EC92E066DB882309F02DCF6091C60217
:100B60007727882799272091CA02332744275527BA
:100B70002F5F3F4F4F4F5F4FC9D97B018C01609171
:100B8000C8027727762F66272091C902620F711D50
:100B900088279927D090CC022D2D3327322F22275A
:100BA000C090CD022C0D311D44275527AFD99B0194
:100BB000AC01C801B701AAD99B01AC018091DB034C
:100BC000992784FD04C0205F3F4F4F4F5F4F85FF43
:100BD00004C020583140404050408091D70390914C
:100BE000D803A091D903B091DA03281739074A072F
:100BF0005B0711F083E007C081E08093CC03DC2821
:100C0000D81619F482E08093CC03072D87C5109283
:100C1000CC030B811C810115110509F484C5809159
:100C2000DB03A82EBB24A6FC5CC00430110578F4BD
:100C3000015010401695102F002717950795D801E1
:100C40007D010027112720E8C22ED12C1EC0A5FE51
:100C500004C0C12C91E0D92E03C080E8C82ED12C4D
:100C6000B8018827992764507040804090409601D1
:100C7000442755274BD97B018C0180E891E0A0E007
:100C8000B0E0E80EF91E0A1F1B1FA4FC08C080E19B
:100C900090E0A0E0B0E0E80EF91E0A1F1B1F8A8159
:100CA000823549F49601B801A70180E05CDB892B0D
:100CB00009F439C5E7C0B60186EC92E0B2DA8823C0
:100CC00009F079CE83992FC58091DB0383FD2BC575
:100CD0009601B801A70181E046DB892B09F423C501
:100CE00094CF8A81823549F060E870E086EC92E02A
:100CF00098DA882309F05FCE16C580E890E079DAAB
:100D000003301105E0F498013695322F22273795EC
:100D1000279520583040E6ECF2E09985D90157D963
:100D2000802D873011F4892F895F80832F5F3F4F9B
:100D3000A3E0E534FA0709F4A2C03196EFCF609141
:100D4000D7037091D8038091D9039091DA03645846
:100D50007F4F8F4F9F4F2DE730E040E050E015D997
:100D60007901B1E008361B0721F482E08093C602C6
:100D700059C0E1E009361E0709F059C060E08091D2
:100D8000D5039091D6038BD620E040E050E0A6EC4E
:100D9000B2E060E2342F9C91892F81548A3118F09F
:100DA0008F5E8A3030F4E22FFF27EA53FD4F9083A5
:100DB0002F5F373049F03A3049F406C0E22FFF2761
:100DC000EA53FD4F60832F5F3217C0F74F5F5F4FCD
:100DD00011964B305105F1F62AE030E0E0EDF2E0FB
:100DE000808185832150304031978FEF2F3F380726
:100DF000B9F780E1E82FFF27EA53FD4F10828F5F9C
:100E00008038C1F790E9E91692E0F90610F086E41F
:100E100001C082E48093C60281E791E09093CA0208
:100E20008093C902F092C802E092C70228C0A1E0F4
:100E300001371A0720F1B801882799272DE730E0FC
:100E400040E050E063D8AB01BC014D52544B6040D0
:100E500070402DE730E080E086DA9C018D37910507
:100E600018F440E050E003C0A8014F5F5F4F852FAA
:100E70009927809343034093440320934503F0E86C
:100E8000CF2ED12CC60196CD80E18093C6028091F1
:100E9000DB0387FF03C080E98093C6028091DB03F8
:100EA00085FF05C08091C60280628093C602909142
:100EB000DB0392FF08C08091C60284608093C60263
:100EC0009B7F9093DB03839904C08091DB0383FFB6
:100ED00005C08091C60288608093C6028FEF809320
:100EE000C70280EE8093C8021092C90284E090E0AD
:100EF00061CD26B3237084E790E0821B91094817E7
:100F0000590709F020CC8A818055843018F480E399
:100F1000898395CC5D9BFECF81E48CB90F3081F045
:100F2000053070F48FE0089FF0011124E05AFF4F64
:100F3000ADECB3E08D91819323E0AC3DB207D1F7E6
:100F40008A819927AA27BB27FC01E05CF040E034A6
:100F5000F10508F0EAC3ED5EFF4F099400E010E0F0
:100F600017C28091C6028093C20322C048D98B81E8
:100F70009C8102ED12E07C010894E11CF11C60E010
:100F80008ED58823A9F083E0023C180751F3D801DD
:100F9000E6ECF2E081918D9392E0E13DF907D1F723
:100FA0008091C703F8018387045F1F4FC701E3CF18
:100FB000E6ECF2E08485819323E0E73BF207D1F78A
:100FC00081EF90E0C2C28B818A3F08F0AEC3888770
:100FD0001F828FD75D9BFECF83E48CB90FE007CCD7
:100FE0008B8189879AC3E5EBF0E0A6ECB2E08191B2
:100FF0008D9380E0E23CF807D1F7A3EDB2E0EDEC91
:10100000F3E081918D9393E0EC3DF907D1F78CE10A
:1010100090E09BC28091DB038093C60281E090E068
:1010200094C28B819C81CAD46093C6027093C7021C
:101030008093C8029093C90284E090E086C264E085
:1010400070E086EC92E0EDD8882309F07BCB6091CC
:10105000C6027091C7028091C8029091C9026A8746
:101060007B878C879D8753D958C36A857B858C8500
:101070009D854DD93ED75D9BFECF83E48CB939D792
:1010800060E072E082EC90E02AD8182F60E072E015
:1010900082EC90E051D85D9BFECF1CB953CB6A85A2
:1010A0007B858C859D8533D940E160E072E082ECE0
:1010B00090E04FD8182F1FD7112351F06A857B85F8
:1010C0008C859D8524D95D9BFECF8EE48CB93ACB6F
:1010D0005D9BFECF81E48CB980E0EED8882309F0D7
:1010E00024C31BC38B81882309F417C320E030E09D
:1010F000982F09C0FF27DF01AD54BF4F68D7802D5F
:10110000EA53FD4F8083E22F2F5F3F4FE91790F3A3
:10111000892F99271AC2F3D8ECD65D9BFECF83E4C2
:101120008CB98B81882309F454CA90CA8B8185308D
:1011300008F0FBC2EFE08E9FF0011124E05AFF4F50
:1011400086858E7F8687E9C29B81953008F0EDC247
:101150008FE0989FF0011124E05AFF4F868580FDB3
:1011600006C08EE090E045D88EE090E0EEC1DF0151
:10117000E7ECF3E08D918683319623E0E63DF207BC
:10118000C9F78091D5038B838091D5039091D603C5
:10119000892F99278C8360E08B819C8180D4B82E25
:1011A00004C083EE8A8371E0B72E8091C7038093D9
:1011B000D1028A81833E51F48091D5039091D60368
:1011C0009093D3028093D2021EE0B0C0853E11F00E
:1011D0001CE0ACC08091D7039091D803A091D903B3
:1011E000B091DA038093D2029093D302A093D402F9
:1011F000B093D5028091C8039091C9039093D70210
:101200008093D6028091CA039091CB039093D90228
:101210008093D802EAEDF2E080E2819392E0E83F29
:10122000F907D9F7E090D703F090D8030091D903DC
:101230001091DA038091C703887119F480E38093D9
:10124000E3026BEEC62E6FEFD62ECE0EDF1EE1143C
:10125000F1040105110599F0C801B7012AE030E059
:1012600040E050E092D66063D6016C93C801B701AC
:101270002AE030E040E050E088D679018A01089405
:10128000C108D108B9EDCB16B2E0DB0601F78DE25B
:101290008093E9028093EC028AE38093F2028093C8
:1012A000F5020091C8031091C903012F112706957B
:1012B0000454184FC80164E670E053D6CB016FE1C7
:1012C000A2D7C80164E670E04CD661E29CD7809159
:1012D000C8039091C90345E0969587954A95E1F733
:1012E00064E28F7090D78091C80367E28F718BD7CB
:1012F0008091CA039091CB03892F99278695869573
:1013000086956AE280D78091CA039091CB0325E04D
:10131000969587952A95E1F76DE28F7374D7809142
:10132000CA038F7160E3880F6ED712E3BB2019F4F4
:1013300082E390E05ED7812F992707C161E08B811E
:101340009C81ADD3882319F480E090E008C0E6ECDE
:10135000F2E081918823E9F7CF01865C9240FC019D
:10136000EA53FD4F02C0119201968F3F9105D9F3C8
:10137000D0F38A819927865E904020E031E002C058
:10138000359527958A95E2F7C901DFC00F5F1F4F9A
:1013900060E0C80184D38823C9F71093C702009383
:1013A000C60282E090E0D1C0EC2DFF27EA53FD4F4A
:1013B0008FE3808351C08B818150843110F084E1B0
:1013C0008B83DB80A090CF03B090D003CC2431C0BE
:1013D000DD2051F3E090CF03F090D0038091CD0356
:1013E0009091CE039093D0038093CF0300E010E060
:1013F0001AC08091CD039091CE03E816F90689F4C6
:10140000E4EFCE0EEC2DFF27EA53FD4F8FE28193E0
:10141000A6ECB2E08D91819322E0A13DB20741F0AC
:10142000F9CF0F5F1F4F60E0C80139D3882309F758
:10143000DA9460E080E090E032D3882369F0809114
:10144000C70384FF09C08091C6028E3229F48091BF
:10145000C7028E3209F4BCCFB092D003A092CF0362
:101460002C2D3327D901AA53BD4F08C0E82FFF27E1
:10147000EA53FD4F8D9180832F5F3F4F822F8C1950
:101480002F3F310599F390F3882351F41092C6024F
:1014900081E006C0E82FFF27EA53FD4F10828F5FDF
:1014A0008823C1F79B818CE0989FC00111244DC017
:1014B0006BE070E08BEB93E0B4D6882309F042C96F
:1014C0008C81882309F429C18B81806F8A831C82D7
:1014D0001B820B811C8116C0E6ECF2E0ABEBB3E0A3
:1014E0009D91992319F08081981751F4319682E0EB
:1014F000E13DF807A9F78A81803F08F071C051CE1D
:101500000F5F1F4F60E0C801CAD2882329F78A8184
:10151000803F08F00AC125CE9B81953020F086B32C
:10152000837094E0981B9E83892F47D6F6C09B81D9
:10153000FE0136968C81E80FF11DA6ECB2E0819198
:101540008D939150E1F78B81992715D8FBC860E006
:1015500080E090E0A4D2882371F18091C70384FFDA
:101560002AC08091C6028E3231F58091C7028E3238
:1015700011F5E090CF03F090D0038091CD039091CE
:10158000CE039093D0038093CF038B81882309F4FB
:10159000C4C000E010E00AC08091CD039091CE035A
:1015A000E816F90609F4FDCD0F5F1F4F60E0C80192
:1015B00076D2882389F78B81882309F0D2CDADC0FC
:1015C0001092D0031092CF0360E080E090E067D2E9
:1015D000A4C060E08B819C8162D2882309F4A5C0FD
:1015E0008091C7032091CD033091CE0384FF05C0C5
:1015F0003093D0032093CF037EC03093D203209347
:10160000D1031092D4031092D3038091CE0281347F
:1016100009F048C08091CF02843509F069C08091FB
:10162000D002823509F064C020E130E040E050E0B3
:1016300060E070E080E097D681E08093DB038091EA
:10164000CA029091CB02892B2091D7033091D80305
:101650004091D9035091DA03813079F481E280938B
:10166000DB03CA01B901605170408040904020E026
:1016700031E040E050E011E20BC0CA01B901605115
:1016800070408040904020E830E040E050E011E0C1
:101690007CD4215D32404040504068F11068109386
:1016A000DB0329C0883521F58091CF02863401F50E
:1016B0008091D0028434E1F481E18093DB03809156
:1016C000D7039091D803A091D903B091DA03813068
:1016D000E8E69E07E1E0AE07E0E0BE0760F081507B
:1016E0009840A240B04010F481E903C081E301C0FA
:1016F00089EC8093DB039A819F70953070F48FE0C2
:10170000989FF0011124E05AFF4FADECB3E08D91AA
:10171000819323E0AC3DB207D1F70FE0EAD35D9BA4
:10172000FECF83E407C0072D01C00FE0E2D35D9B2D
:10173000FECF85E48CB907C8AD985CC9C59ABD9A3F
:10174000BC98BB9ABA9A6C9A7098689A699A6B9886
:101750006D986E9A8EB108958FB9779BFECF8FB139
:10176000992708958FEF8FB9779BFECF8FB1992777
:101770000895DF92EF92FF920F931F93D82E7A0174
:101780008B01F0DFEFDFEEDFEDDF8D2D8064E4DF36
:10179000812F9927AA27BB27DFDFC801AA27BB27EC
:1017A000DBDFBB27A12F902F8F2DD6DF8E2DD4DF2F
:1017B000DD2011F485E901C086E8CEDFD3DF1EEF1E
:1017C00003C0D0DF115011F087FDFBCF99271F9187
:1017D0000F91FF90EF90DF9008950F931F93CF9399
:1017E000DF93122FC298C5DF8093C200C12FDD277F
:1017F00003EC10E0B7DFF80181938F012197D1F757
:10180000C29A8091C2009927DF91CF911F910F91C9
:101810000895CF93DF93AB01BC01C2988091DD03A3
:10182000882339F439E0440F551F661F771F3A9516
:10183000D1F781E19EDF882311F0992710C092DF54
:101840008E3FE9F7C2ECD0E08DDF899382E0C23CA5
:10185000D807D1F787DF86DFC29A80E090E0DF917A
:10186000CF910895C29885DFC29A992708951F9352
:10187000CF93DF938FEF9FEFAFEFBFEF8093C20265
:101880009093C302A093C402B093C5021092C60302
:101890001092DD031FEF66DF1150E9F740E050E0E2
:1018A00060E070E080E0DEDF813009F047C024E0D6
:1018B0004AEA51E060E070E088E08FDFCFEFDFEFD1
:1018C00040E050E060E070E087E3CCDF182F81302B
:1018D000D9F440E050E060E070E489E2C3DF88239F
:1018E00089F425E040E050E060E070E08AE375DFD5
:1018F000882321F58091C300807C803CE1F0109228
:10190000DD0302C02197E1F640E050E060E070E0C6
:1019100081E0A8DF882391F440E050E060E070E0CF
:101920008BE3A0DF40E052E060E070E080E19ADF0E
:1019300080E090E005C01093DD03E6CF8FEF90E0EC
:10194000DF91CF911F910895CF93DF93AB01BC013D
:10195000C2988091DD03882339F4E9E0440F551FD4
:10196000661F771FEA95D1F788E103DF882319F016
:10197000282F33271BC0F6DE8EEFEEDEC2ECD0E060
:101980008991EADE82E0C23CD807D1F7EBDEEADEDD
:10199000E9DE282F3327C9018F719070059731F444
:1019A000E1DE8823E9F3C29A20E030E0C901DF914B
:1019B000CF910895C3DEBA9AC29A0895EF92FF922A
:1019C0000F931F93E090B900F090BA000091BB0014
:1019D0001091BC00009769F48091BD009091BE0009
:1019E000AA27BB27E81AF90A0A0B1B0BC801B70183
:1019F0000FC002979C01B901882799272091C10047
:101A000033274427552782D26E0D7F1D801F911FDB
:101A10001F910F91FF90EF900895AF92BF92CF92D8
:101A2000DF92EF92FF920F931F935C01CC24DD2491
:101A3000AA0CBB1CCC1CDD1CE090BF00F090C000C9
:101A400000271127C601B501A80197019ED2609118
:101A5000B5007091B6008091B7009091B800620F08
:101A6000731F841F951F53D4C601B501A8019701A8
:101A70008CD2DC01CB018E539F4FFC018081918180
:101A8000FFEF8F3F9F0711F480E090E01F910F91CF
:101A9000FF90EF90DF90CF90BF90AF9008954F925E
:101AA0005F926F927F928F929F92AF92BF92CF92EE
:101AB000DF92EF92FF920F931F93CF93DF934C012E
:101AC000562EA090CF03B090D0038091DE0390916A
:101AD000DF03A816B90639F0B092DF03A092DE0347
:101AE0001092E00312C08091E003882371F000910E
:101AF000AB001091AC000815190590F08016910606
:101B000021F4813011F4662359F08091CF03909134
:101B1000D00354DF6B017C01442400E010E02DC0B1
:101B20007090B4006091AD007091AE008091AF00F4
:101B30009091B000A090B200B090B3006090B1005E
:101B4000442420C0A114B10471F4262D33278091C0
:101B5000BD009091BE002817390780F080E090E02A
:101B600004C142E0B2C08091C100681638F0C501DE
:101B700054DF5C0123DF6B017C0166246394C701A1
:101B8000B60177246B017C010894C11CD11CE11CB7
:101B9000F11CBDD3C72DDD27E5E0CC0FDD1FEA9595
:101BA000E1F7CE53DF4F8881882309F48DC0853E4D
:101BB00009F483C09B859F30D9F5552009F47DC079
:101BC000992701978F7090702DE030E0A901849FD4
:101BD0009001859F300D949F300D11242A533D4F65
:101BE000FE01D90190E081818D939F5F32969530FF
:101BF000D1F7D9011596AE019D0190E0FA018685D5
:101C0000F90181939F019F5F4E5F5F4F9630B1F75F
:101C10008C8DFD0186838E8D8783888186FD10865D
:101C200088818F70813009F048C071E0472E45C02F
:101C3000442041F00815190509F493CF0F5F1F4F99
:101C400044243BC08E3229F48981803211F494FD02
:101C500034C093FD32C00815190569F5DE01E6ECC4
:101C6000F2E08D91819342E0E13DF407D1F71092CB
:101C7000D1025520F1F0DF011196FD0131978081ED
:101C80008C93DF0152E0EE3CF507B9F78091C60274
:101C90008E3219F08EE28093CE02DF011897FD019B
:101CA0008081803209F08D93319680818823C1F73D
:101CB0001C9241E00AC00F5F1F4F739480E17816B9
:101CC00009F440CFA0966FCF40E08A8D9B8D909312
:101CD000CE038093CD039092D6038092D5038C8D52
:101CE0009D8DAE8DBF8D8093D7039093D803A09325
:101CF000D903B093DA038B858093C7032E893327EA
:101D00008F899927982F8827282B392B3093CB033D
:101D10002093CA03288D3327898D9927982F8827E8
:101D2000282B392B3093C9032093C8034423D9F0BF
:101D30001093AC000093AB007092B4000894C108FB
:101D4000D108E108F108C092AD00D092AE00E09257
:101D5000AF00F092B000B092B300A092B2006092D7
:101D6000B1004093E003842F9927DF91CF911F9119
:101D70000F91FF90EF90DF90CF90BF90AF909F902A
:101D80008F907F906F905F904F900895DF92EF92C9
:101D9000FF920F931F93CF93DF93CDB7DEB760977A
:101DA0000FB6F894DEBF0FBECDBF60E070E080E0FC
:101DB00090E0ADD2DE011196E0E8F2E080E1019022
:101DC0000D928150E1F7E984FA840B851C85DD8052
:101DD0008091F8008634A9F48091F900813489F467
:101DE0008091FA00843569F48091FB00813349F4D5
:101DF0008091FC00863329F4EE24FF248701BEE0A5
:101E0000DB2EC801B70183D2E091D300F091D4005A
:101E1000A4E0F695E795AA95E1F7F093BE00E0936C
:101E2000BD004091D0005091D1008091D2009927FF
:101E30002091D8003091D900BC01629FC001639FFE
:101E4000900D729F900D1124E40FF51F8E0F9F1FB0
:101E5000AA27BB278E0D9F1DA01FB11F8093B9001D
:101E60009093BA00A093BB00B093BC008091CF00C8
:101E70008093C1008091CD009091CE009093C000DE
:101E80008093BF00662777274E0D5F1D601F711F6F
:101E90004093B5005093B6006093B7007093B800BC
:101EA0001092D0031092CF038FEF9FEF9093DF0338
:101EB0008093DE0374E0D71641F086E0D81629F04F
:101EC00080E090E02EE0D21611F481E090E0609680
:101ED0000FB6F894DEBF0FBECDBFDF91CF911F913B
:101EE0000F91FF90EF90DF90089581E006C082E0AF
:101EF00004C088E002C08AE000C09EEE9A95F1F727
:101F00009EEE9A95F1F78A95C1F70895629FD001E8
:101F1000739FF001829FE00DF11D649FE00DF11DA4
:101F2000929FF00D839FF00D749FF00D659FF00D53
:101F30009927729FB00DE11DF91F639FB00DE11D40
:101F4000F91FBD01CF0111240895991B79E004C048
:101F5000991F961708F0961B881F7A95C9F78095E8
:101F60000895AA1BBB1B51E107C0AA1FBB1FA617E0
:101F7000B70710F0A61BB70B881F991F5A95A9F732
:101F800080959095BC01CD010895A1E21A2EAA1B5F
:101F9000BB1BFD010DC0AA1FBB1FEE1FFF1FA21719
:101FA000B307E407F50720F0A21BB30BE40BF50B16
:101FB000661F771F881F991F1A9469F7609570959F
:101FC000809590959B01AC01BD01CF010895E199E9
:101FD000FECFBFBBAEBBE09A11960DB20895FFCF06
:00000001FF
